{
  "contractName": "Fibonacci",
  "abi": [
    {
      "constant": true,
      "inputs": [
        {
          "name": "",
          "type": "uint256"
        }
      ],
      "name": "fibonacciSeries",
      "outputs": [
        {
          "name": "",
          "type": "uint256"
        }
      ],
      "payable": false,
      "stateMutability": "view",
      "type": "function",
      "signature": "0x1b35b490"
    },
    {
      "constant": false,
      "inputs": [
        {
          "name": "n",
          "type": "uint256"
        }
      ],
      "name": "generate",
      "outputs": [],
      "payable": false,
      "stateMutability": "nonpayable",
      "type": "function",
      "signature": "0x4a7dd523"
    }
  ],
  "bytecode": "0x608060405234801561001057600080fd5b50610209806100206000396000f3fe60806040526004361061004c576000357c0100000000000000000000000000000000000000000000000000000000900463ffffffff1680631b35b490146100515780634a7dd523146100a0575b600080fd5b34801561005d57600080fd5b5061008a6004803603602081101561007457600080fd5b81019080803590602001909291905050506100db565b6040518082815260200191505060405180910390f35b3480156100ac57600080fd5b506100d9600480360360208110156100c357600080fd5b81019080803590602001909291905050506100fe565b005b6000818154811015156100ea57fe5b906000526020600020016000915090505481565b6000600190806001815401808255809150509060018203906000526020600020016000909192909190915055506000600190806001815401808255809150509060018203906000526020600020016000909192909190915055506000600290505b818110156101d9576000806002830381548110151561017a57fe5b906000526020600020015460006001840381548110151561019757fe5b9060005260206000200154019080600181540180825580915050906001820390600052602060002001600090919290919091505550808060010191505061015f565b505056fea165627a7a723058203ecb0a3ac38b5abbc01f4c027f5c9cfc05744d4e1ce27ce4485cfe4ab5b7b72c0029",
  "source": "pragma solidity ^0.5.0;\r\n\r\n\r\ncontract Fibonacci {\r\n    \r\n    uint[] public fibonacciSeries;\r\n\r\n    /**\r\n    @dev Generate fibonacci series of n numbers\r\n    @param n number of integers in the sequence to generate\r\n     */\r\n    function generate(uint n) \r\n    public {\r\n\r\n        fibonacciSeries.push(1);\r\n        fibonacciSeries.push(1);\r\n\r\n        for (uint i = 2; i < n; i++) {\r\n\r\n            fibonacciSeries.push(fibonacciSeries[i-1] + fibonacciSeries[i-2]);\r\n        }\r\n    }\r\n}",
  "sourcePath": "C:/Users/d90789/Documents/Repositories/SolidityWithTruffle/Debugger/contracts/Fibonacci.sol",
  "compiler": {
    "name": "solc",
    "version": "0.5.0+commit.1d4f565a.Emscripten.clang"
  },
  "schemaVersion": "3.0.0",
  "updatedAt": "2019-01-04T10:45:11.362Z",
  "devdoc": {
    "methods": {
      "generate(uint256)": {
        "details": "Generate fibonacci series of n numbers\r",
        "params": {
          "n": "number of integers in the sequence to generate\r"
        }
      }
    }
  },
  "userdoc": {
    "methods": {}
  }
}